:020000040800F2
:1000000000000220F5300008690500086B050008B3
:100010006D0500086F05000871050008000000006C
:10002000000000000000000000000000612A00083D
:100030007305000800000000012B0008EB250008F4
:1000400045310008453100084531000845310008B8
:1000500045310008453100084531000845310008A8
:100060004531000845310008453100084531000898
:100070004531000845310008453100084531000888
:100080004531000845310008453100084531000878
:100090004531000845310008453100084531000868
:1000A0004531000845310008453100084531000858
:1000B0004531000845310008453100084531000848
:1000C0004531000845310008453100084531000838
:1000D0004531000845310008453100084531000828
:1000E0004531000845310008453100084531000818
:1000F0004531000845310008453100084531000808
:1001000045310008453100084531000845310008F7
:1001100045310008453100087505000845310008E3
:1001200045310008453100084531000845310008D7
:1001300045310008453100084531000845310008C7
:1001400045310008453100084531000845310008B7
:1001500045310008453100084531000845310008A7
:100160004531000845310008453100084531000897
:100170004531000845310008453100080000000005
:0801800045310008453100087B
:1001900053B94AB9002908BF00281CBF4FF0FF31EE
:1001A0004FF0FF3000F00CB8ADF1080C6DE904CE53
:1001B00003F0BCF8DDF804E0DDE9022304B0704789
:1001C000704700BF0348044B834202D0034B03B186
:1001D0001847704760000020600000200000000009
:1001E0000548064B1B1AD90F01EBA301491002D099
:1001F000034B03B1184770476000002060000020E7
:100200000000000010B5064C237843B9FFF7DAFF71
:10021000044B13B10448AFF300800123237010BDD9
:1002200060000020000000004C36000808B5054BB7
:100230001BB105490548AFF30080BDE80840FFF752
:10024000CFBF00BF00000000640000204C36000853
:100250002DE9F04F8DB007AD002407946C60AC60C1
:10026000EC602C6101947A4B1A6B42F010021A6315
:100270001A6B02F010020192019A02941A6B42F07A
:1002800004021A631A6B02F004020292029A0394A7
:100290001A6B42F080021A631A6B02F0800203921A
:1002A000039A04941A6B42F001021A631A6B02F06B
:1002B00001020492049A05941A6B42F002021A6336
:1002C0001A6B02F002020592059A06941A6B42F02C
:1002D00008021A631B6B03F008030693069B224671
:1002E00008215C4800F0C4FDDFF87491012211463A
:1002F000484600F0BDFDDFF86CA122464FF2100128
:10030000504600F0B5FD082607964FF00108CDF8DD
:10031000208009940A9429464E4800F0A5FCCDF8A7
:100320001C80CDF8208009940A942946484600F0A4
:100330009BFC07960226089609940A944FF0050B39
:10034000CDF82CB02946484600F08EFCCDF81C8034
:100350004FF48813089309943F4F2946384600F01C
:1003600083FC10230793089609940A9406230B93A1
:100370002946384600F078FCE02307930896099454
:100380000A94CDF82CB02946384600F06DFC0422C2
:100390000792089409942946304800F065FC4FF410
:1003A00080630793089609940A94CDF82CB02946E7
:1003B0002A4800F059FC4FF210030793CDF8208033
:1003C00009940A942946504600F04EFC4FF4A45379
:1003D0000793089609940A9406230B9329464846E6
:1003E00000F042FC4FF400730793089409942946E7
:1003F000384600F039FC4FF4E0530793089609940F
:100400000A940A230B932946384600F02DFC20233A
:100410000793089409942946504600F025FC4FF4B0
:10042000107307931223089309940A9404220B92E1
:1004300029460A4800F018FC07964FF490130893D9
:1004400009942946034800F00FFC0DB0BDE8F08F79
:100450000038024000100240000002400004024048
:1004600000080240000C024008B5012002F05CF9CF
:10047000FBE7000008B50268034B9A4200D008BDB4
:1004800000F082FDFBE700BF0010004072B6FEE7FF
:1004900010B594B008AC30220021204602F053FE83
:1004A00000230393049305930693079301931F4A34
:1004B000116C41F080511164126C02F08052019273
:1004C000019A02931A4A116841F48041116012683E
:1004D00002F480420292029A0222089201210B91B8
:1004E00010210C910E920F93082310933223119335
:1004F0000423129307231393204600F065F888B96C
:100500000F23039302230493014605904FF4A05355
:1005100006934FF48053079303A800F0C1FA18B96B
:1005200014B010BDFFF7B2FFFFF7B0FF0038024074
:100530000070004008B500F00DFDFFF7A9FFFFF7C0
:1005400087FE02F05FF8054A0021054802F08AF8AC
:10055000044B186002F068F8FEE700BF8836000818
:10056000690400087C000020FEE7FEE7FEE7FEE7E6
:10057000FEE7704708B5024802F076FC08BD00BFF0
:10058000DC4D002000B583B0002200920D4B596C69
:1005900041F480415964596C01F480410091009903
:1005A0000192196C41F0805119641B6C03F0805367
:1005B0000193019B0F216FF0010000F0B7FC03B025
:1005C00000BD00BF00380240002800F0E28170B595
:1005D00082B00446036813F0010F3BD09B4B9B682D
:1005E00003F00C03042B2CD0984B9B6803F00C03F6
:1005F000082B21D06368B3F5803F4FD0B3F5A02F0F
:1006000052D0924B1A6822F480321A601A6822F48F
:1006100080221A606368002B50D000F0C1FC0546B0
:100620008A4B1B6813F4003F14D100F0B9FC401B47
:100630006428F5D90320B3E1844B5B6813F4800F81
:10064000D8D0824B1B6813F4003F03D06368002BA3
:1006500000F0A181236813F0020F54D07B4B9B68FC
:1006600013F00C0F3ED0794B9B6803F00C03082B62
:1006700033D0E368002B68D0754B01221A6000F07C
:100680008FFC0546714B1B6813F0020F54D100F02C
:1006900087FC401B0228F5D9032081E16B4A1368CF
:1006A00043F480331360B5E7684B1A6842F4802244
:1006B0001A601A6842F480321A60ABE700F070FCEE
:1006C0000546624B1B6813F4003FC3D000F068FC82
:1006D000401B6428F5D9032062E15C4B5B6813F48E
:1006E000800FC6D1594B1B6813F0020F03D0E3688B
:1006F000012B40F05281554A136823F0F803216919
:1007000043EAC1031360236813F0080F42D0636902
:100710006BB34F4B0122C3F8802E00F041FC05461D
:100720004A4B5B6F13F0020F34D100F039FC401BD1
:100730000228F5D9032033E1444A136823F0F80373
:10074000216943EAC1031360DDE7414B00221A60CF
:1007500000F026FC05463D4B1B6813F0020FD2D07B
:1007600000F01EFC401B0228F5D9032018E1384B8D
:100770000022C3F8802E00F013FC0546334B5B6F5C
:1007800013F0020F06D000F00BFC401B0228F5D935
:10079000032005E1236813F0040F79D02B4B1B6C69
:1007A00013F0805F34D100230193284B1A6C42F080
:1007B00080521A641B6C03F080530193019B012348
:1007C0001E46244B1B6813F4807F24D0A368012BA2
:1007D00035D0052B40D01D4B1A6F22F001021A674D
:1007E0001A6F22F004021A67A368002B3ED000F0B3
:1007F000D7FB0546154B1B6F13F0020F47D100F0D6
:10080000CFFB401B41F288339842F3D90320C7E065
:1008100000231E46D5E70F4A136843F48073136024
:1008200000F0BEFB05460B4B1B6813F4807FCDD157
:1008300000F0B6FB401B0228F5D90320B0E0034AC4
:10084000136F43F001031367CEE700BF0038024087
:100850000000474200700040584B1A6F42F00402FB
:100860001A671A6F42F001021A67BDE700F098FBA1
:100870000546524B1B6F13F0020F08D000F090FB9F
:10088000401B41F288339842F3D9032088E0EEB947
:10089000A369002B00F08380484A926802F00C02A2
:1008A000082A51D0022B17D0454B00221A6600F0BF
:1008B00077FB0446414B1B6813F0007F42D000F0E9
:1008C0006FFB001B0228F5D9032069E03B4A136C3B
:1008D00023F080531364DBE7394B00221A6600F0E3
:1008E0005FFB0546354B1B6813F0007F06D000F018
:1008F00057FB401B0228F5D9032051E0E369226A27
:100900001343626A43EA8213A26A5208013A43EA35
:100910000243E26A43EA0263284A5360284B0122F9
:100920001A6600F03DFB0446244B1B6813F0007F61
:1009300006D100F035FB001B0228F5D903202FE07B
:1009400000202DE000202BE0012B2BD01B4B5B68FF
:1009500003F48001E269914226D103F03F02216A4B
:100960008A4223D1616A47F6C0721A40B2EB811FF6
:100970001ED103F44031A26A5208013AB1EB024F92
:1009800018D103F07063E26AB3EB026F14D1002058
:1009900006E001207047012002E0012000E0184637
:1009A00002B070BD0120FBE70120F9E70120F7E765
:1009B0000120F5E70120F3E70120F1E700380240CC
:1009C0000000474208B5334B9B6803F00C03042B2F
:1009D0005BD0082B5BD12F4B5A6802F03F025B685B
:1009E00013F4800F2CD02B4B5868C0F388104FEABB
:1009F000401CBCEB000C6EEB0E0E4FEA8E1343EA6C
:100A00009C634FEA8C11B1EB0C0163EB0E03DB002E
:100A100043EA5173C90011EB000C43F10003590282
:100A200000234FEA4C2041EADC51FFF7B1FB194BA0
:100A30005B68C3F3014301335B00B0FBF3F008BD17
:100A4000144B5868C0F388104FEA401CBCEB000CF4
:100A50006EEB0E0E4FEA8E1343EA9C634FEA8C1145
:100A6000B1EB0C0163EB0E03DB0043EA5173C900E9
:100A700011EB000C43F10003990200234FEA8C2094
:100A800041EA9C51FFF784FBD1E70348D7E70348CD
:100A9000D5E700BF0038024000127A000024F400BD
:100AA000002800F09B8070B50D4604464F4B1B6834
:100AB00003F007038B4208D2CBB24C4A1370136881
:100AC00003F007038B4240F08B80236813F0020F82
:100AD00017D013F0040F04D0454A936843F4E05351
:100AE0009360236813F0080F04D0414A936843F4DD
:100AF000604393603E4A936823F0F003A1680B4380
:100B00009360236813F0010F32D06368012B21D06A
:100B10009A1E012A25D9364A126812F0020F61D0B6
:100B200033498A6822F0030213438B6000F038FADD
:100B300006462F4B9B6803F00C036268B3EB820FF1
:100B400016D000F02DFA801B41F288339842F0D97C
:100B5000032042E0264A126812F4003FE0D101204F
:100B60003BE0234A126812F0007FD9D1012034E023
:100B70001E4B1B6803F00703AB4207D9EAB21B4BBD
:100B80001A701B6803F00703AB422DD1236813F0E2
:100B9000040F06D0164A936823F4E053E1680B4330
:100BA0009360236813F0080F07D0114A936823F469
:100BB0006043216943EAC1039360FFF703FF0C4BD5
:100BC0009B68C3F303130B4AD35CD8400A4B1860ED
:100BD0000A4B186802F0ACF8002070BD0120704785
:100BE0000120FAE70120F8E70120F6E7003C024087
:100BF00000380240B436000808000020040000203D
:100C0000014B1868704700BF0800002008B5FFF7C7
:100C1000F7FF044B9B68C3F38223034AD35CD8409D
:100C200008BD00BF00380240AC3600080F23036047
:100C30000B4B9A6802F0030242609A6802F0F002DD
:100C400082609A6802F4E052C2609B68DB0803F499
:100C5000E0530361034B1B6803F007030B6070470D
:100C600000380240003C024070B582B08E4600233E
:100C700069E085684FEA430C032101FA0CF125EA8B
:100C80000105DEF80C1001FA0CF12943816041687E
:100C900021EA0201DEF80420C2F300129A400A435E
:100CA000426065E0D908083150F8212003F00705BB
:100CB000AD004FF00F0C0CFA05FC22EA0C0CDEF82C
:100CC0001020AA4042EA0C0240F8212067E00722E7
:100CD00000E0002202FA0CF22A430231604D45F88E
:100CE0002120604A9168E24321EA0405DEF80460AD
:100CF00016F4801F01D044EA01055A498D60C96885
:100D000002EA0105DEF8046016F4001F01D044EA8F
:100D100001055449CD60496802EA0105DEF8046026
:100D200016F4003F01D044EA01054E494D600968C0
:100D30000A40DEF8045015F4803F01D044EA010275
:100D400048490A6001330F2B00F2878001229A4044
:100D5000DEF8001001EA020432EA0101F2D1DEF805
:100D6000041001F0030C0CF1FF3CBCF1010F80D921
:100D7000DEF8042002F00302032A0AD0C1685D00F5
:100D80000322AA4021EA0201DEF80820AA400A4311
:100D9000C260DEF8042002F00302022A82D0016859
:100DA0004FEA430C032202FA0CF221EA0201DEF8B8
:100DB000042002F0030202FA0CF20A430260DEF899
:100DC000042012F4403FBDD000220192264A516C0B
:100DD00041F480415164526C02F480420192019AC4
:100DE00099088D1C1E4A52F8255003F0030C4FEA57
:100DF0008C0C0F2202FA0CF225EA02051B4A9042E3
:100E00003FF467AF02F5806290421AD002F580622B
:100E1000904218D002F58062904216D002F58062AE
:100E2000904214D002F58062904212D002F58062A6
:100E3000904210D002F5806290423FF448AF082201
:100E400048E7012246E7022244E7032242E7042260
:100E500040E705223EE706223CE702B070BD00BF36
:100E600000380140003C01400038024000000240D0
:100E70000AB181617047090481617047002807DB6E
:100E800000F01F02400901239340024A42F820303B
:100E9000704700BF00E100E0002808DB0901C9B28B
:100EA00000F1604000F5614080F80013704700F0E9
:100EB0000F000901C9B2014B1954704714ED00E04D
:100EC00000B500F00700A0F1030CBCF1040F07D837
:100ED000C0F1070E0430062806D84FF0000C03E0DE
:100EE0004FF0040E4FF0000C4FF0FF3303FA0EF0FA
:100EF00021EA000101FA0CF103FA0CF322EA0302E1
:100F000041EA020000BD0000074AD36823F4E06311
:100F10001B041B0C000200F4E060034343F0BF63BA
:100F200043F40033D360704700ED00E010B5044691
:100F3000054BD868C0F30220FFF7C2FF01462046E8
:100F4000FFF7AAFF10BD00BF00ED00E008B5FFF7F6
:100F500095FF08BD08B50B4B1A6842F400721A6081
:100F60001A6842F480621A601A6842F480721A6049
:100F70000320FFF7C9FF0F2001F0DAFEFFF702FBA5
:100F8000002008BD003C0240034A1168034B1B7857
:100F90000B441360704700BF800000200000002059
:100FA000014B1868704700BF80000020034AD2F848
:100FB000883043F47003C2F88830704700ED00E0D9
:100FC00000F1080343604FF0FF328260C3600361A9
:100FD00000230360704700230361704743684B6040
:100FE0009A688A6051609960086103680133036000
:100FF000704710B402460846D1F800C0BCF1FF3F6C
:1010000011D002F1080319465B681C686445FAD9DF
:101010004B684360986081604860026113680133E7
:10102000136010BC70471169F2E703694168826878
:101030008A60416851605A68824206D0002202618B
:101040001A68013A1A601868704782685A60F5E7B2
:1010500010B5044601F016FDA26BE36B9A4204D072
:10106000002401F031FD204610BD0124F9E710B540
:10107000044601F007FDA36B2BB901231C4601F0C8
:1010800023FD204610BD00231C46F8E770B504463A
:101090001646856B026C5AB903681BB100200135F6
:1010A000A56370BD806801F023F80023A360F6E714
:1010B0006EB9406802F0D4F86368226C1344636030
:1010C000A268934219D3236863603046E7E7C0689B
:1010D00002F0C6F8E368226C51429B1AE360226872
:1010E000934202D2A3680B44E360022E01D0002099
:1010F000D5E725B1013D0020D1E73046CFE72846AE
:10110000CDE70346026C6AB110B50846D9681144B0
:10111000D9609C68A14201D31968D960D96802F0EE
:101120009FF810BD704738B5054601F0ABFC95F847
:10113000454064B201E0013C64B2002C0ADD6B6AF8
:1011400043B105F1240000F025FF0028F3D000F0A2
:10115000B9FFF0E7FF2385F8453001F0B5FC01F059
:1011600091FC95F8444064B201E0013C64B2002C6B
:101170000ADD2B6943B105F1100000F00BFF0028D8
:10118000F3D000F09FFFF0E7FF2385F8443001F033
:101190009BFC38BD38B5E0B10D46044601F072FC49
:1011A0002368E26B216C01FB0230A0600020A06389
:1011B0006360013A02FB0133E360FF2384F84430AB
:1011C00084F84530FDB9236963B901F07DFC012045
:1011D00038BD4FF0500383F31188BFF36F8FBFF317
:1011E0004F8FFEE704F1100000F0D4FE0028ECD091
:1011F0004FF0E0234FF08052C3F8042DBFF34F8F20
:10120000BFF36F8FE1E704F11000FFF7D9FE04F19F
:101210002400FFF7D5FED8E738B51D46049C0B46E1
:1012200049B92460E063236401212046FFF7B2FF3F
:1012300084F84C5038BD2260F4E740B94FF05003B9
:1012400083F31188BFF36F8FBFF34F8FFEE710B5A5
:1012500084B01C46844653B192B189B94FF0500313
:1012600083F31188BFF36F8FBFF34F8FFEE74FF00B
:10127000500383F31188BFF36F8FBFF34F8FFEE7E7
:101280006AB150230393039B502B13D04FF05003AC
:1012900083F31188BFF36F8FBFF34F8FFEE70029F1
:1012A000EFD04FF0500383F31188BFF36F8FBFF37C
:1012B0004F8FFEE7039B012384F8463000949DF88E
:1012C00018306046FFF7A8FF204604B010BDF0B507
:1012D00085B0019288B10F461D460446B1B1022D7A
:1012E00020D1E36B012B1DD04FF0500383F3118805
:1012F000BFF36F8FBFF34F8FFEE74FF0500383F3C1
:101300001188BFF36F8FBFF34F8FFEE7036C002B85
:10131000E5D04FF0500383F31188BFF36F8FBFF315
:101320004F8FFEE700F0D4FE064658B9019B002B14
:1013300048D04FF0500383F31188BFF36F8FBFF392
:101340004F8FFEE700263DE02A4639462046FFF74C
:101350009DFE636A7BB948B14FF0E0234FF08052A5
:10136000C3F8042DBFF34F8FBFF36F8F01F0ACFBB9
:10137000012005B0F0BD04F1240000F00BFE0028B0
:10138000F4D04FF0E0234FF08052C3F8042DBFF3A8
:101390004F8FBFF36F8FE9E701F096FB0020E8E77E
:1013A00002A800F03FFE012619E0002384F8443033
:1013B00021E0002384F8453023E02046FFF7B3FE08
:1013C00000F0BEFC01F05EFBA26BE36B9A42BBD364
:1013D000022DB9D0019B002BDED0002EE0D001F011
:1013E00073FB00F00DFC01F04DFB94F8442052B269
:1013F000B2F1FF3FD9D094F8452052B2B2F1FF3F8D
:10140000D7D001F061FB01A902A800F017FED8B9FE
:101410002046FFF71DFE0028CFD0019904F11000EF
:1014200000F082FD2046FFF77EFE00F089FC0028D8
:10143000C8D14FF0E0234FF08052C3F8042DBFF322
:101440004F8FBFF36F8FBDE72046FFF76CFE00F0B4
:1014500077FC00208DE72DE9F84390B10F469046C8
:101460001E460446B1B1022E20D1E36B012B1DD0E4
:101470004FF0500383F31188BFF36F8FBFF34F8F8B
:10148000FEE74FF0500383F31188BFF36F8FBFF374
:101490004F8FFEE7036C002BE5D04FF0500383F332
:1014A0001188BFF36F8FBFF34F8FFEE701F012FC7F
:1014B000EFF311834FF0500282F31188BFF36F8F67
:1014C000BFF34F8F9946A26BE36B9A4206D3022E6D
:1014D00004D0002089F31188BDE8F88394F84530E2
:1014E0005DB2A36B324639462046FFF7CFFDB5F11A
:1014F000FF3F06D02B4601335BB284F84530012014
:10150000E8E7636A0BB90120E4E704F1240000F086
:1015100041FD28B143462BB10120C8F80000D9E7AE
:101520000120D7E70120D5E7F0B585B0019290B151
:101530000F460446C1B100F0CBFD064600BB019B3F
:10154000002B5ED04FF0500383F31188BFF36F8FF1
:10155000BFF34F8FFEE74FF0500383F31188BFF3C3
:101560006F8FBFF34F8FFEE7036C002BE3D04FF07C
:10157000500383F31188BFF36F8FBFF34F8FFEE7E4
:1015800000263EE039462046FFF7BBFD013DA5633E
:10159000236923B901F098FA012005B0F0BD04F1E8
:1015A000100000F0F7FC0028F4D04FF0E0234FF0DB
:1015B0008052C3F8042DBFF34F8FBFF36F8FE9E75D
:1015C00001F082FA2846E8E702A800F02BFD012688
:1015D00021E0002384F8443029E0002384F84530DA
:1015E0002BE02046FFF79FFD00F0AAFB09E0204614
:1015F000FFF799FD00F0A4FB2046FFF738FD002817
:101600003FD101F03FFAA56B002DBBD1019B002B10
:10161000D6D0002ED8D001F057FA00F0F1FA01F040
:1016200031FA94F844305BB2B3F1FF3FD1D094F873
:1016300045305BB2B3F1FF3FCFD001F045FA01A9CD
:1016400002A800F0FBFC0028D1D12046FFF70FFDD7
:101650000028C6D0019904F1240000F065FC204662
:10166000FFF761FD00F06CFB0028CAD14FF0E023CA
:101670004FF08052C3F8042DBFF34F8FBFF36F8F2D
:10168000BFE7002089E700000023072B0CD8074A9A
:1016900052F833200AB10133F7E7044A42F8331015
:1016A00002EBC30250607047704700BF8400002007
:1016B00070B504460D46164601F0E4F994F844303E
:1016C0005BB2B3F1FF3F0DD094F845305BB2B3F19C
:1016D000FF3F0BD001F0F8F9A36B5BB12046FFF799
:1016E00022FD70BD002384F84430EDE7002384F828
:1016F0004530EFE73246294604F1240000F02CFC87
:10170000ECE70000084B1B681B6823B9074B4FF040
:10171000FF321A607047044B1B68DB68DB685A684D
:10172000024B1A60704700BF34010020CC0000203B
:101730002DE9F84380460D4617469946089E0A9CB7
:101740009200A521206B01F0FEFC236B07F1804283
:10175000013A03EB820323F00707002D5FD04FF01F
:10176000000CBCF10F0F09D815F80C3004EB0C027B
:1017700082F8343013B10CF1010CF2E7002384F845
:101780004330372E00D93726E662E664002525650A
:10179000201DFFF720FC04F11800FFF71CFC24615A
:1017A000C6F13806A6616462C4F8585284F85C52E7
:1017B0004FF40072294604F1580001F0C4FC1A4BA2
:1017C000E36503F168022266D033636601220023D9
:1017D000C4E93C2343F20E33A4F8F8304AF6CD3383
:1017E000A4F8FA3041F23423A4F8FC304EF26D63D1
:1017F000A4F8FE304DF6EC63A4F800310523A4F8FC
:1018000002310B23A4F804314A464146384601F020
:1018100011F92060099B03B11C60BDE8F883002327
:1018200084F83430ADE700BF244E002038B50024E2
:1018300007E004EB84000F4B03EB8000FFF7C0FBD5
:101840000134372CF5D90C4D2846FFF7B9FB0B4C6A
:101850002046FFF7B5FB0A48FFF7B2FB0948FFF740
:10186000AFFB0948FFF7ACFB084B1D60084B1C6041
:1018700038BD00BF600100204C010020380100206D
:101880001C01002008010020F0000020340100208D
:101890003001002010B5044601F0F4F8224A136824
:1018A00001331360214B1B685BB1214B1B686BB983
:1018B0001E4B1B68DA6AE36A9A4207D81B4B1C600E
:1018C00004E01A4B1C601368012B29D0194A1368D5
:1018D000013313606364E06A174B1B68984201D9B7
:1018E000154B186000EB8000211D144B03EB8000AA
:1018F000FFF774FB01F0E8F80D4B1B687BB10B4B55
:101900001B68DA6AE36A9A4209D24FF0E0234FF08B
:101910008052C3F8042DBFF34F8FBFF36F8F10BDFC
:10192000FFF784FFD2E700BFEC000020C0050020D5
:10193000E0000020D0000020E40000206001002032
:1019400010B50446583001F007FC94F85D3263B1DD
:10195000012B11D0022B0ED04FF0500383F31188CE
:10196000BFF36F8FBFF34F8FFEE7206B00F0E4FFF4
:10197000204600F0E1FF10BD204600F0DDFFFAE751
:101980000F4B1B68D3B110B501F07CF80D4BDB6831
:10199000DC68201DFFF749FB0B4A1368013B13600D
:1019A000074A1368013B136001F08EF82046FFF7E9
:1019B000C7FF034B1B68002BE6D110BD704700BF6B
:1019C0000401002008010020EC00002008B5FFF70A
:1019D000D7FF074B1B68012BF9D94FF0E0234FF0DD
:1019E0008052C3F8042DBFF34F8FBFF36F8FEEE724
:1019F0006001002070B504460E46174B1D68174B5A
:101A000018680430FFF711FBB4F1FF3F0DD02C44F0
:101A1000124B1B685C60A54210D9114B18680F4B24
:101A200019680431FFF7E5FA70BD002EEFD00B4BBB
:101A3000196804310B48FFF7D1FAF5E70A4B18682B
:101A4000064B19680431FFF7D4FA084B1B68A34210
:101A5000EAD9064B1C60E7E7E8000020C00500203B
:101A600030010020F000002034010020CC000020D4
:101A700010B586B08C46099989B10A99C1B14FF465
:101A8000187104910499B1F5187F1AD04FF05003E2
:101A900083F31188BFF36F8FBFF34F8FFEE74FF0D3
:101AA000500383F31188BFF36F8FBFF34F8FFEE7AF
:101AB0004FF0500383F31188BFF36F8FBFF34F8F45
:101AC000FEE7DDF810E00A99099C0C6302210A9CEC
:101AD00084F85D1200210391029405A901910899EF
:101AE00000916146FFF724FE0A98FFF7D3FE0598A0
:101AF00006B010BD2DE9F04385B0814688461446F6
:101B00001F46900000F096FE08B306464FF418708A
:101B100000F090FE0546A0B12E63002380F85D32F0
:101B2000039302900D9B01930C9B00933B4622462E
:101B300041464846FFF7FCFD2846FFF7ABFE012073
:101B400007E0304600F0F8FE4FF0FF3001E04FF0C4
:101B5000FF3005B0BDE8F08310B588B000240594CF
:101B6000069407AA06A905A800F0ECFD059B0293C0
:101B7000069B019300942346079A19491948FFF7D9
:101B800077FF194B186018B100F066FB012804D0EC
:101B9000B0F1FF3F1BD008B010BD4FF0500383F3EE
:101BA0001188BFF36F8FBFF34F8F104B1B685833F3
:101BB0000F4A13600F4B4FF0FF321A600E4B012299
:101BC0001A600E4B00221A6000F0F6FFE3E74FF0B8
:101BD000500383F31188BFF36F8FBFF34F8FFEE77E
:101BE00070360008CD190008C8000020C00500208C
:101BF00010000020CC000020E0000020E8000020C1
:101C0000024A136801331360704700BFC40000200C
:101C1000014B1868704700BFE8000020F8B53D4B45
:101C20001B68002B6ED13C4B1D6801351D60C5B98A
:101C30003A4B1B681B6843B14FF0500383F3118884
:101C4000BFF36F8FBFF34F8FFEE7344A1168344BF9
:101C5000186810601960334A136801331360FFF786
:101C600051FD314B1B68AB4241D900231F462F4B1E
:101C70001B68DB6A03EB83039B002D4AD358012BBF
:101C800001D901231F462B4B1B68002B40D0012399
:101C90001F463DE001231F46204B1B681B684BB3CA
:101CA0001E4B1B68DB68DC6863689D4227D3261DDA
:101CB0003046FFF7BAF9A36A1BB104F11800FFF729
:101CC000B4F9E06A1C4B1B68984201D91A4B1860A2
:101CD00000EB80003146164B03EB8000FFF77EF9E6
:101CE000E26A124B1B68DB6A9A42D3D2D4E7002324
:101CF0001F46D1E70C4B4FF0FF321A60B7E70A4A94
:101D00001360B4E70D4A13680133136000231F46C4
:101D10003846F8BDC4000020E8000020340100204F
:101D200030010020D4000020CC000020C00500209D
:101D300060010020D8000020E4000020DC0000202A
:101D400038B5354B1B6843B94FF0500383F3118806
:101D5000BFF36F8FBFF34F8FFEE700F093FE2E4B64
:101D60001A68013A1A601B68002B4FD12B4B1B6875
:101D70000BB91C464BE00024294B1B681BB3284BB6
:101D8000DB68DC6804F11800FFF74FF9251D2846D1
:101D9000FFF74BF9E06A234B1B68984201D9214BAE
:101DA000186000EB800029461F4B03EB8000FFF713
:101DB00015F9E26A1D4B1B68DB6A9A42DCD31C4BA7
:101DC00001221A60D8E70CB1FFF79CFC194B1C6884
:101DD00084B9174B1C68D4B14FF0E0234FF0805208
:101DE000C3F8042DBFF34F8FBFF36F8F01240EE0B4
:101DF000013C07D0FFF712FF0028F9D00C4B01225D
:101E00001A60F5E70B4B00221A60E2E7002400F0AD
:101E10005BFE204638BD00BFC4000020EC0000205F
:101E20001C010020E400002060010020C00500200B
:101E3000D8000020DC00002010B5A8B10446104BEB
:101E40001B6843B14FF0500383F31188BFF36F8FCA
:101E5000BFF34F8FFEE7FFF7D3FE00212046FFF7C9
:101E6000C9FDFFF76DFF48B94FF0E0234FF08052F6
:101E7000C3F8042DBFF34F8FBFF36F8F10BD00BFAA
:101E8000C4000020224B1B681BB1224B01221A60A8
:101E90007047204B00221A601F4B1B6803EB830224
:101EA00092001E498A585AB90BB1013BF6E74FF030
:101EB000500383F31188BFF36F8FBFF34F8FFEE79B
:101EC000084603EB830201EB8202516849685160C6
:101ED00003EB830292000832024491420FD003EBDD
:101EE00083010E4A02EB81025268D1680C4A1160EC
:101EF00009490B60136858330A4A136070474868F1
:101F000003EB8301054A02EB81025060E7E700BF63
:101F1000C4000020D8000020E40000206001002060
:101F2000C00500201000002058B110B50C46094A29
:101F300011681831FFF75DF801212046FFF75AFDBF
:101F400010BD4FF0500383F31188BFF36F8FBFF3C1
:101F50004F8FFEE7C005002038B578B10D46144616
:101F60000B4A11681831FFF739F814B14FF0FF33FD
:101F70001D4621462846FFF73DFD38BD4FF0500372
:101F800083F31188BFF36F8FBFF34F8FFEE700BF5E
:101F9000C005002038B5C368DC6834B304F1180309
:101FA0001D461846FFF741F8184B1B6833BB231D2D
:101FB0001D461846FFF739F8E06A154B1B68984232
:101FC00001D9134B186000EB80002946114B03EB3D
:101FD0008000FFF703F8E26A0F4B1B68DB6A9A4246
:101FE00011D901200D4B186038BD4FF0500383F319
:101FF0001188BFF36F8FBFF34F8FFEE72946084864
:10200000FEF7ECFFE7E70020EEE700BFC40000208A
:10201000E400002060010020C0050020D80000205E
:102020001C010020034B1B680360034B1B684360CB
:10203000704700BFD4000020E8000020E0B170B578
:102040000C46064609B300F01DFD1C4B1968736869
:10205000C81A2268B2F1FF3F28D03568DFF860C0A7
:10206000DCF800C0654501D08B4224D9824215D8E6
:102070000023236001241AE04FF0500383F31188FA
:10208000BFF36F8FBFF34F8FFEE74FF0500383F323
:102090001188BFF36F8FBFF34F8FFEE75B1A1344B6
:1020A00023603046FFF7BEFF002400E0002400F06C
:1020B0000BFD204670BD0124F9E700BFE8000020B9
:1020C000D4000020014B01221A607047D800002084
:1020D000054B1B6833B1054B1B680BB100207047E3
:1020E0000220704701207047E0000020C40000205B
:1020F00000283ED038B504461E4B1B68834208D0EA
:102100004FF0500383F31188BFF36F8FBFF34F8FEE
:10211000FEE7036D43B94FF0500383F31188BFF31B
:102120006F8FBFF34F8FFEE7013B0365C16AC26C3F
:1021300091421CD00BB1002038BD031D1D4618462E
:10214000FEF773FFE06CE062C0F13803A3610A4B55
:102150001B68984201D9084B186000EB80002946A3
:10216000064B03EB8000FEF739FF0120E4E7002077
:10217000E2E77047C0050020E40000206001002075
:10218000064B1A6813682BB90123036023B9D3687F
:10219000186870470023F8E700207047C406002045
:1021A00008B54160006191420CD8D21A83699A4205
:1021B00001D3012008BD011D094B1868FEF719FF66
:1021C0000020F7E79A4201D2994206D2011D054B41
:1021D0001868FEF70EFF0020ECE70120EAE700BFD9
:1021E000C0060020C406002000B583B000F04AFC01
:1021F000114B1B681BB100F067FC03B000BD0F481A
:10220000FEF7DEFE0E48FEF7DBFE0E4B0B4A1A60B1
:102210000D4B0B4A1A60002300930C4B0C4A102103
:102220000A20FFF70AF8044B18600028E3D0094998
:10223000FFF72AFADFE700BFBC060020DC0600201B
:10224000C8060020C4060020C0060020C4050020E7
:10225000140600207836000810B588B0FFF7C4FFD8
:10226000124B1B68CBB100240594069407AA06A95B
:1022700005A800F073FA059B0293069B01930223C5
:1022800000932346079A0A490A48FFF7F1FB0A4BD5
:10229000186010B1012008B010BD4FF0500383F357
:1022A0001188BFF36F8FBFF34F8FFEE7BC0600208E
:1022B00080360008D5250008B8060020B8B19C4635
:1022C00003461748006850B300B585B000910192ED
:1022D000029305291CDCFFF7FBFE022810D0002327
:1022E0001A4669460E480068FEF7F1FF15E04FF008
:1022F000500383F31188BFF36F8FBFF34F8FFEE757
:102300000023069A694606480068FEF7E0FF04E0ED
:10231000002362466946FFF79EF805B000BD70478E
:10232000BC06002070B582B01B4B1B681A6862B3F4
:10233000DB681E68DC68251D2846FEF776FE236AEA
:102340002046984794F8283013F0040FECD0A36986
:1023500033449E4207D26360246129460E4B1868BD
:10236000FEF747FEE0E7002100910B46324620468B
:10237000FFF7A4FF0028D7D14FF0500383F3118853
:10238000BFF36F8FBFF34F8FFEE7044A1068024917
:102390000860136002B070BDC4060020C0060020B3
:1023A00038B50546FFF734FC0446074B1B688342EB
:1023B00005D800232B60044B1C60204638BDFFF776
:1023C000B1FF01232B60F6E7B406002070B582B0A0
:1023D00005460E4617490968C968CC68201DFEF7F6
:1023E00024FE94F828C01CF0040F08D12CF0010C36
:1023F00084F828C0236A2046984702B070BDA169BE
:102400002B46324629442046FFF7CAFE0028F1D069
:10241000002100910B462A462046FFF74FFF002877
:10242000E8D14FF0500383F31188BFF36F8FBFF3F0
:102430004F8FFEE7C406002070B582B005460C46FB
:10244000FFF7DEFB01A8FFF7ABFF019B3BBB064696
:10245000E4B9A84213D22246A91B134B1868FFF710
:1024600027F9FFF76DFCE0B94FF0E0234FF0805201
:10247000C3F8042DBFF34F8FBFF36F8F11E0FFF749
:102480005FFC31462846FFF7A1FF0AE0074A1268C1
:10249000126812B901231C46DDE71C46DBE7FFF793
:1024A0004FFC02B070BD00BFBC060020C00600207B
:1024B00010B588B002E0049B002B0FDA002204A9BB
:1024C000434B1868FFF730F800287ED0049B002BA0
:1024D000F1DA07990698059B9847ECE7069C636933
:1024E00013B1201DFEF7A1FD03A8FFF759FF049BC0
:1024F000052B5CD041DC032B49D02CDC022BDDD832
:1025000094F8283043F0010384F82830059BA16932
:10251000024619442046FFF743FE0028CED0236A26
:102520002046984794F8283013F0040FC6D0A269CB
:10253000002100910B46059802442046FFF7BEFE9D
:102540000028BBD14FF0500383F31188BFF36F8F86
:10255000BFF34F8FFEE7042BB0D194F8283043F03F
:10256000010384F828300599A161B9B103460246F8
:1025700001442046FFF714FEA0E7082B07D003DC38
:10258000063B012BBCD999E7092BE6D096E794F8D6
:10259000283023F0010384F828308FE74FF05003F0
:1025A00083F31188BFF36F8FBFF34F8FFEE794F86B
:1025B000283013F0020F04D023F0010384F82830F0
:1025C0007CE7204600F0B8F978E708B010BD00BFFE
:1025D000BC06002000B583B001A8FFF7D1FD01992A
:1025E000FFF72AFFFFF764FFF6E708B54FF0E02397
:1025F0001B69FFF76DFD012800D108BD00F0B2FA9C
:10260000FBE70000EFF305832BB9064B186828B9E8
:1026100001221A6070476FF0050070474FF0FF30DD
:10262000704700BFB011002008B5EFF3058373B900
:102630000A4B1B68012B0DD1094B4FF00002DA77D2
:10264000064B02221A60FFF787FA002008BD6FF0E0
:102650000500FBE74FF0FF30F8E700BFB0110020A6
:1026600000ED00E070B586B000230593EFF305831D
:102670004BBB40B3002A3ED0D2F800E093692BB1A7
:102680001D46013B372B03D900201DE018231D46B2
:10269000536813F0010F45D1D2F814C0BCF1000FFC
:1026A00014D04FEA9C031E46936843B1D468B4F536
:1026B000187F04D3146914B1BCF1000F11D143B1D8
:1026C0004FF0FF330BB3059806B070BD80231E4654
:1026D000EAE7D368B3B91369002BF3D04FF0FF33A7
:1026E000F0E70293019400950B4632467146FFF7DE
:1026F000BFF90590E7E79646134618221546802253
:102700001646DFE74FF0FF33DCE705AB019300959A
:102710000B46B2B27146FFF7EDF90128D3D0002382
:102720000593D0E70020CFE708B5EFF305832BB979
:1027300000B908BDFFF780FB0020FAE76FF0050045
:10274000F7E70000034B0360034B0B60802313602B
:10275000704700BF500F0020500D0020034B036056
:10276000034B0B604FF4807313607047F00A002036
:10277000F0060020124A12F0070F1ED0D11D21F0E2
:102780000701C1F5705313440A460E480260002148
:1027900041601344083B23F007030B480360596072
:1027A0001960991A51601360084B1960084B196041
:1027B000084B4FF000421A6070474FF47053E4E743
:1027C000D4110020CC110020C8110020C01100201D
:1027D000C4110020B4110020144B1A461B68834218
:1027E000FBD3516802EB010C844509D0416800EB32
:1027F000010C634509D00360904200D0106070471F
:102800004068014451601046F0E7DFF824C0DCF86E
:1028100000C0634506D05B681944416013681B68BB
:102820000360E9E7C0F800C0E6E700BFCC11002074
:10283000C811002038B50446FFF7E2F9384B1B6891
:10284000B3B1384B1B681C4250D1002C50D004F15E
:10285000080214F0070F02D022F007020832002A03
:1028600055D0314B1B68934253D330490C6804E078
:10287000FFF780FFE5E721461C466368934202D2DA
:102880002368002BF7D1264B1B68A34243D00D6869
:10289000083523680B6063689B1A102B10D9A018A9
:1028A00010F0070F08D04FF0500383F31188BFF3E7
:1028B0006F8FBFF34F8FFEE743606260FFF78CFFBF
:1028C000626819490B689B1A0B60194909688B42A9
:1028D00001D217490B60134B1B681343636000233D
:1028E0002360144A13680133136002E0002500E0FE
:1028F0002546FFF725FA15F0070F0ED04FF05003CD
:1029000083F31188BFF36F8FBFF34F8FFEE7154638
:10291000EFE70025EDE70025EBE7284638BD00BFCF
:10292000C8110020B4110020C4110020CC110020D7
:10293000C0110020BC110020002835D038B5044655
:10294000A0F108031D4650F8043C184A12681342CF
:1029500008D14FF0500383F31188BFF36F8FBFF39B
:102960004F8FFEE750F8081C41B14FF0500383F33E
:102970001188BFF36F8FBFF34F8FFEE723EA020387
:1029800040F8043CFFF73CF954F8041C084A13686B
:102990000B4413602846FFF71FFF064A13680133F4
:1029A0001360FFF7CDF938BD704700BFB4110020A8
:1029B000C4110020B811002082B0002301930D4BF8
:1029C0001B68B3F1FF3F08D04FF0500383F3118829
:1029D000BFF36F8FBFF34F8FFEE74FF0500383F3CA
:1029E0001188BFF36F8FBFF34F8F019B002BFCD07B
:1029F00002B070470C00002008480068006880F3AF
:102A000008884FF0000080F3148862B661B6BFF307
:102A10004F8FBFF36F8F00DF00BF000008ED00E0B5
:102A2000DFF80C00016841F470010160704700009C
:102A300088ED00E04FF0807340F8043C21F0010184
:102A400040F8081C054B40F80C3C40F8202C6FF077
:102A5000020340F8243C4438704700BFB9290008FD
:102A6000074B19680868B0E8F04F80F30988BFF396
:102A70006F8F4FF0000080F311887047AFF3008034
:102A8000C00500204FF0500383F31188BFF36F8F10
:102A9000BFF34F8F0B4A136801331360012B00D033
:102AA00070474FF0E023D3F8043D13F0FF0FF7D049
:102AB0004FF0500383F31188BFF36F8FBFF34F8F35
:102AC000FEE700BF0C000020094B1B6843B94FF024
:102AD000500383F31188BFF36F8FBFF34F8FFEE76F
:102AE000013B034A13600BB983F31188704700BFA1
:102AF0000C000020000000000000000000000000AA
:102B0000EFF30980BFF36F8F154B1A681EF0100F9B
:102B100008BF20ED108A20E9F04F106009B44FF093
:102B2000500080F31188BFF34F8FBFF36F8FFFF713
:102B3000A9F94FF0000080F3118809BC19680868F2
:102B4000B0E8F04F1EF0100F08BFB0EC108A80F311
:102B50000988BFF36F8F7047AFF30080AFF3008039
:102B6000C005002008B54FF0500383F31188BFF370
:102B70006F8FBFF34F8FFFF751F828B14FF0E0236D
:102B80004FF08052C3F8042D002383F3118808BD51
:102B90004FF0E022002313619361054B1B68054948
:102BA000A1FB03139B09013B53610723136170478A
:102BB00008000020D34D62104FF0E023D3F8002D21
:102BC0003E4B9A421CD04FF0E023D3F8002D3C4BF3
:102BD0009A421ED010B582B03A4B1A78D2B2019206
:102BE000FF221A701B78DBB28DF803309DF803309A
:102BF00003F05003344A1370344B07221A601BE071
:102C00004FF0500383F31188BFF36F8FBFF34F8FE3
:102C1000FEE74FF0500383F31188BFF36F8FBFF3CC
:102C20004F8FFEE7294A1368013B13609DF803307C
:102C30005B00DBB28DF803309DF8033013F0800F9A
:102C4000F0D1224B1B68032B08D04FF0500383F3C5
:102C50001188BFF36F8FBFF34F8FFEE71B021B4A34
:102C6000136003F4E0631360019BDBB2154A137039
:102C70004FF0E022D2F8203D43F47003C2F8203D2B
:102C8000D2F8203D43F070431446C2F8203DFFF7D0
:102C90007FFF0F4B00221A60FFF7C2FED4F8343FCB
:102CA00043F04043C4F8343FFFF7A6FEFFF7EAF8CD
:102CB000FFF782FE002002B010BD00BF71C20F41BD
:102CC00070C20F4100E400E0D84D0020D44D002038
:102CD0000C000020EFF305830F2B0ED9114A9A5CEC
:102CE000114B1B789A4208D24FF0500383F311889E
:102CF000BFF36F8FBFF34F8FFEE74FF0E023D3F8A2
:102D00000C3D03F4E063094A1268934208D94FF07E
:102D1000500383F31188BFF36F8FBFF34F8FFEE72C
:102D2000704700BFF0E300E0D84D0020D44D0020F4
:102D300030B589B0044600230193224B1A6C42F04F
:102D400010021A641B6C03F010030193019B02A98B
:102D500003A8FDF76BFF069BCBB9FDF757FF0346B2
:102D6000194AA2FB03239B0C013B1848184A026036
:102D700040F2E732C26043600023036183608361F5
:102D800000F08AF9054630B1284609B030BDFDF79C
:102D90003DFF4300E4E70D4800F020F80546002819
:102DA000F2D13620FEF7D2F80F2C02D901231D46AE
:102DB000EAE7002221463620FEF7B8F8054B1C60F2
:102DC000E2E700BF0038024083DE1B43DC4D0020F9
:102DD00000100040040000207047000090F83D30D3
:102DE000012B37D1022380F83D300268D36843F0CD
:102DF0000103D3600368194A934220D0B3F1804F96
:102E00001DD0A2F57C42934219D002F58062934214
:102E100015D002F58062934211D002F578429342B8
:102E20000DD002F57052934209D0A2F5943293422C
:102E300005D01A6842F001021A60002070479A68B3
:102E400002F00702062A07D01A6842F001021A604F
:102E500000207047012070470020704700000140AB
:102E6000704770477047704770B504460368DE6866
:102E70001D6915F0020F10D016F0020F0DD06FF083
:102E800002021A610123037703689B6913F0030FA1
:102E90005ED0FFF7E6FF0023237715F0040F12D072
:102EA00016F0040F0FD023686FF004021A6102239A
:102EB000237723689B6913F4407F4FD02046FFF7A8
:102EC000D0FF0023237715F0080F12D016F0080F5B
:102ED0000FD023686FF008021A6104232377236858
:102EE000DB6913F0030F40D02046FFF7BAFF002341
:102EF000237715F0100F12D016F0100F0FD02368A3
:102F00006FF010021A61082323772368DB6913F43A
:102F1000407F31D02046FFF7A4FF0023237715F030
:102F2000010F02D016F0010F2DD115F0800F02D045
:102F300016F0800F2FD115F0400F02D016F0400F81
:102F400031D115F0200F02D016F0200F33D170BD13
:102F5000FFF786FF2046FFF785FF9CE72046FFF737
:102F60007FFF2046FFF77EFFABE72046FFF778FFA5
:102F70002046FFF777FFBAE72046FFF771FF2046AC
:102F8000FFF770FFC9E723686FF001021A6120465E
:102F9000FDF770FAC9E723686FF080021A612046D6
:102FA00000F0A7F8C7E723686FF040021A612046D7
:102FB000FFF759FFC5E723686FF020021A6120462A
:102FC00000F096F8C3E700000368324A904212D03E
:102FD000B0F1804F0FD0A2F57C4290420BD002F5A9
:102FE0008062904207D002F58062904203D002F5E1
:102FF0007842904203D123F070034A681343254A74
:1030000090422AD0B0F1804F27D0A2F57C42904266
:1030100023D002F5806290421FD002F58062904278
:103020001BD002F57842904217D002F570529042C0
:1030300013D002F5806290420FD002F58062904278
:103040000BD0A2F59832904207D002F580629042F0
:1030500003D002F58062904203D123F44073CA6822
:10306000134323F080034A6913438A68C2620A68E3
:103070008262084A904203D002F58062904201D1F8
:103080000A690263026842F004020260012242619E
:10309000036070470000014040B310B5044690F84B
:1030A0003D30F3B1022384F83D30214651F8040B42
:1030B000FFF78AFF012384F8463084F83E3084F815
:1030C0003F3084F8403084F8413084F8423084F84E
:1030D000433084F8443084F8453084F83D30002093
:1030E00010BD80F83C30FFF777FEDBE7012070472A
:1030F00070477047DFF834D0FDF758FF0C480D4992
:103100000D4A002302E0D458C4500433C4188C4242
:10311000F9D30A4A0A4C002301E013600432A242A8
:10312000FBD300F077F8FDF705FA704700000220A6
:103130000000002060000020D4360008600000205D
:10314000644F0020FEE702440346934200D17047DB
:1031500003F8011BF9E700002D4B1B68834270B593
:10316000044653D0C3691BB3DB6863B10025E36930
:10317000DB685959B1B90435802DF8D1E36920468F
:10318000D96800F07BF8E369196811B1204600F0B6
:1031900075F8E3699D685DB1294620462D6800F009
:1031A0006DF8F8E70E68204600F068F83146E1E770
:1031B000616911B1204600F061F8E16911B1204662
:1031C00000F05CF8216B11B1204600F057F8616BFC
:1031D00011B1204600F052F8A16B11B1204600F069
:1031E0004DF8A16C11B1204600F048F8616C11B1A6
:1031F000204600F043F8E16A11B1204600F03EF8A5
:10320000236A1BB12046BDE87040184770BD00BF5F
:103210001000002070B50D4B0D4C00261D1BB6EBA9
:10322000A50F09D100F012FA0A4C0B4B00261D1B0A
:10323000B6EBA50F05D170BD54F8043B9847013695
:10324000EDE754F8043B98470136F1E7CC36000827
:10325000CC360008CC360008D036000870477047DE
:103260000A44914200F1FF3300D1704710B511F8C4
:10327000014B03F8014F9142F9D110BD37B5002938
:1032800044D051F8043C0190002BA1F10404B8BFD4
:10329000E41800F03FF81E4A0198136833B96360E0
:1032A000146003B0BDE8304000F03AB8A34208D93A
:1032B000256861198B4201BF19685B684919216053
:1032C000EDE71A465B680BB1A342FAD911685518AD
:1032D000A5420BD1246821445418A3421160E0D1C7
:1032E0001C685B6853600C441460DAE702D90C2355
:1032F0000360D6E7256861198B4204BF19685B68D3
:10330000636004BF491921605460CAE703B030BD4F
:10331000604F00200148FFF7A1BF00BF5C4F0020B5
:103320000148FFF79CBF00BF5C4F00202DE9F0472C
:1033300082B00646DDF828E00846B4460D46002B6C
:103340004ED18A4214466DD9B2FA82F242B1C2F12C
:103350002003954026FA03F394401D4306FA02FC2D
:10336000260CA7B2B5FBF6F14FEA1C4306FB11553C
:1033700043EA054301FB07F0984209D9E31801F13C
:10338000FF3580F00381984240F2008102392344E6
:103390001B1A1FFA8CFCB3FBF6F006FB10334CEA49
:1033A000034C00FB07F363450AD914EB0C0C00F146
:1033B000FF3580F0ED80634540F2EA80A444023896
:1033C00040EA0140ACEB030C0021BEF1000F04D039
:1033D0002CFA02F30022CEE9003202B0BDE8F087F9
:1033E0008B4209D9BEF1000F01D0CEE90061002166
:1033F000084602B0BDE8F087B3FA83F1174600290A
:103400004DD1834202D3B24200F20F81B6EB070CDA
:1034100060EB030301201D46BEF1000FDDD0CEE9B5
:1034200000C5DAE7002A00F098801A46B4FA84F35F
:10343000002B40F0AF800B1B270CA6B20121B3FB81
:10344000F7F54FEA1C4007FB153340EA034306FB40
:1034500005F8984507D9E31805F1FF3002D29845E1
:1034600000F2E8800546A3EB08031FFA8CFCB3FBCF
:10347000F7F007FB10334CEA034C06FB00F36345FF
:1034800008D914EB0C0C00F1FF3602D2634500F2B0
:10349000CE803046ACEB030C40EA054095E7C1F125
:1034A00020058B4022FA05FC4CEA030C00FA01F4DB
:1034B00026FA05F3E84002FA01F943EA04084FEA64
:1034C0001C4206FA01FAB0FBF2F71FFA8CF602FB77
:1034D00017004FEA184444EA004407FB06F0A042F4
:1034E0000AD91CEB040407F1FF3380F09C80A04252
:1034F00040F29980023F6444241A1FFA88F3B4FB17
:10350000F2F002FB104443EA044300FB06F69E423D
:1035100009D91CEB030300F1FF3480F082809E4246
:103520007FD90238634440EA0740A0FB09749B1B23
:10353000A3423E46A04664D361D0BEF1000F0AD03C
:10354000BAEB060263EB080303FA05F5CA4015431C
:10355000CB40CEE9005300213FE7730843EAC17333
:103560004A08190C41EA02414FEAC67C9BB2B2FB01
:10357000F4F02646A04627461F2243EA0143B1FB4A
:10358000F4F1A3EB080341EA004158E72946FFE6BE
:10359000284615E71A46C3F120019C4026FA01F39C
:1035A00020FA01F190400343270C06FA02FCB1FB1C
:1035B000F7F0A6B207FB1015190C41EA054100FB14
:1035C00006F58D423BD9611801D28D4220D8491BA6
:1035D0000138B1FBF7F5019505FB06F8019D9BB29B
:1035E00007FB151143EA0143434526D2E31805F1D1
:1035F000FF31C6D24345C4D2A91E2344C1E7BA4510
:103600009BD2B7EB090664EB0C040138A04694E7A3
:10361000651B29440238B1FBF7F5019505FB06F857
:10362000DCE720467FE71F4666E70846F4E6A44449
:1036300002382FE7023D234415E70199A1E7491B12
:10364000B1FBF7F5019505FB06F8C7E7F8B500BF34
:10365000F8BC08BC9E467047F8B500BFF8BC08BC73
:043660009E467047CB
:1036640064656661756C745461736B0049444C45C0
:1036740000000000546D725100000000546D72206F
:103684005376630064360008000000000000000068
:10369400000000000000000000020000180000000C
:1036A400000000000000000000000000010203040C
:1036B40000000000000000000102030406070809DE
:0836C40068FCFF7F010000001B
:0436CC002D020008C3
:0436D00005020008E7
:1036D40001000000100000000024F400AAAAAAAA15
:1036E4001400002000000000244E00208C4E002016
:1036F400F44E002000000000000000000000000064
:1037040000000000000000000000000000000000B5
:1037140000000000000000000000000000000000A5
:103724000000000000000000000000000000000095
:04000005080030F5CA
:00000001FF
